:0400000057EF00F0C6
:100008002B002B002B002B002B002B002B002B0090
:100018002B002B002B002B002B002B002B002B0080
:100028002B002B002B002B002B002B002B002B0070
:100038002B002B002B0077222B002B002B002B00F2
:100048002B002B002B002B002B002B002B002B0050
:100058002B002B002B002B002B002B002B002B0040
:100068002B002B006D202B002B002B002B002B00CE
:100078002B002B002B002B002B002B002B002B0020
:100088002B002B002B002B002B002B002B002B0010
:100098002B002B002B002B002B002B002B002B0000
:1000A8002B002B00C00004EF30F0660E0101996FA1
:1000B800010E9A6F9BEF0EF0250EAC19D8B40DD037
:1000C80060008BF5D9FF60008FF5DAFF6000B3F6AA
:1000D800DFFF624B632B9BEF0EF0000EA26F000E4A
:1000E800A16F000EAE6F000EAD6F10D00101AD878D
:1000F8000BD00101AD8108D00101AD8305D001010C
:10010800AE8702D00101AD85644B652B600093F585
:10011800F6FF600097F5F7FFF86A0800F550200A27
:10012800D8B4E7D7030AD8B4EAD7080AD8B4E4D7CA
:10013800060AD8B4DBD71D0AD8B4E4D70101ADB399
:10014800AD91ADB7AD95600093F5F6FF600097F5FA
:10015800F7FFF86A0800F55018EC45F0D8A03FD032
:10016800000E0101A26F000EA16F600084F613F16A
:10017800600088F614F1000E0101166F0A0E156F63
:10018800A8EC44F060004CF4A1F1600050F4A2F136
:10019800D00E01017C6FFF0E7D6F600093F5F6FFB6
:1001A800600097F5F7FFF86A0800F5507E6F7F6BDF
:1001B8007C517E277D517F237E51A1277F51A22329
:1001C800644B652B600093F5F6FF600097F5F7FF29
:1001D800F86A0800F55018EC45F0D8B0C6D76000AA
:1001E80093F5F6FF600097F5F7FFF86A0800F550F9
:1001F8002E0AD8A439D00101AE8D644B652B000EB0
:10020800AB6F000EAA6F22D06000A8F613F1600051
:10021800ACF614F1000E0101166F0A0E156FA8EC6A
:1002280044F0600093F5F6FF600097F5F7FFF86A71
:100238000800F55001011327000E1423D00E1325D2
:10024800AA6FFF0E1421AB6F644B652B600093F50A
:10025800F6FF600097F5F7FFF86A0800F55018EC0C
:1002680045F0D8A0DED0D0D7000E0101AB6F000E4C
:10027800AA6FAE89D6D0AD89D4D0AE8507D1AD8B63
:10028800AE8104D1AD8BAE8301D1AD8FFFD06000BC
:1002980067F6D9FF60006BF6DAFF6F0078FF95F11B
:1002A8006F0074FF96F1020E9927000E9A2395515C
:1002B8009611D8A404D0930E956FFF0E966F000E7A
:1002C800986F000E976F03D00101974B982B9751A9
:1002D80095257C6F985196217D6F6000F3F5F6FFA8
:1002E8006000F7F5F7FF000EF86E0F0EF76403D005
:1002F8000800F55007D06F00DBFFE9FF6F00DFFF54
:10030800EAFFEF500009D8A4DFD70101AA51AB11C9
:10031800D8B40CD09751AA5D9851AB59D8B006D033
:100328006000A8F697F16000ACF698F1A151975DCE
:10033800A2519859D8B005D09751A15F9851A25BA6
:1003480004D0000EA26F000EA16FADA70BD034D061
:1003580060008BF5D9FF60008FF5DAFF200EDF6EA5
:10036800624B632BA107D8A0A207A129F1E1A2291A
:10037800D8B422D0EDD7600057F6F6FF60005BF6E0
:10038800F7FF000EF86E60008BF5D9FF60008FF55F
:10039800DAFF0F0EF76403D00800F55007D06F009E
:1003A800DBFFE9FF6F00DFFFEAFFEF50DF6E0101BF
:1003B800954B962B624B632B9707D8A098079729E4
:1003C800DAE19829D8A4D7D7ADB70CD09BEF0EF0B7
:1003D80060008BF5D9FF60008FF5DAFF200EDF6E25
:1003E800624B632BA107D8A0A207A129F1E1A2299A
:1003F800D8B49BEF0EF0ECD7600067F6D9FF600029
:100408006BF6DAFFDF50AC6F020E9927000E9A23C5
:10041800AC0E956F010E966F000E986F010E976FD8
:1004280074D7600093F5F6FF600097F5F7FF0101B8
:10043800644B652BF86A08006F00D4FFACF1AC512F
:10044800000AD8B4ACEF0EF0450AD8B418D7020A9F
:10045800D8B418D7240AD8B4CFD7070AD8B416D036
:10046800010AD8B40DD7030AD8B407D7010AD8B4FB
:100478000AD70E0AD8B40AD0050AD8B4FCD61F0A7F
:10048800D8B405D70B0AD8B400D7C2D7070EAE1513
:10049800D8B4D4EF0BF0AEA904D0000EAB6F060EA3
:1004A800AA6F600067F6D9FF60006BF6DAFF6F008D
:1004B80078FFA7F16F0078FFA8F16F0074FFA9F12A
:1004C800030E9927000E9A23A9AF17D060009CF657
:1004D80031F16000A0F632F16000A4F633F1D7ECF8
:1004E80044F06000C4F4A7F16000C8F4A8F160000B
:1004F800CCF4A9F1030E0101AD13000EA06F000E9C
:100508009F6FA751A811A911D8B4A6D0820E7C6FED
:10051800FF0E7D6F60009CF67EF16000A0F67FF113
:100528006000A4F680F16000A8F681F1100E05D0F5
:10053800D890813380337F337E33E82EF9D77E51CC
:100548007C259F6F000E7D21A06F9F07D8A0A00774
:1005580060007CF613F1600080F614F1000E166F4F
:10056800030E156FA8EC44F060004CF49FF1600096
:1005780050F4A0F160007CF60BF1600080F60CF1FD
:10058800000E01010E6F0A0E0D6F7AEC3CF0600050
:100598002CF49FF1600030F4A0F10101A0AF03D06A
:1005A8009F07D8A0A0079F5100080BEC1DF0600022
:1005B8000CF59BF1600010F59CF1600014F59DF1BD
:1005C80060006CF634F1600070F635F1600074F686
:1005D80036F160009CF637F16000A0F638F1600053
:1005E800A4F639F15AEC32F06000D0F49BF16000C7
:1005F800D4F49CF16000D8F49DF160006CF659F1D8
:10060800600070F65AF1600074F65BF1000E0101AB
:100618005C6F800E5D6F3F0E5E6F96EC3BF00101E4
:10062800D8B004D09F07D8A0A00716D060006CF6F9
:1006380059F1600070F65AF1600074F65BF1000E33
:100648005C6F200E5D6F410E5E6F96EC3BF0010112
:10065800D8A002D09F4BA02BA0BF05D0A05106E187
:100668009F05D8B003D0010EAC6F03D060007CF6B4
:10067800ACF1AEB116D0AEA365EF07F0A0AF06D0CF
:10068800FC0E9F5DFF0EA059D8A00BD0AA519F5D0C
:10069800A051800A7C6FAB51800A7C59D8A065EFC5
:1006A80007F0AA51AB11D8A4AEA303D0AA07D8A0CB
:1006B800AB07AB5104E1090EAA5DD8A003D0080E20
:1006C800AC6F03D06000A8F6ACF1A751A811A9112E
:1006D800D8B41ED160009CF64AF16000A0F64BF138
:1006E8006000A4F64CF1AC5100089F250BEC1DF0FE
:1006F80060000CF54DF1600010F54EF1600014F546
:100708004FF1EDEC34F0600028F5A7F160002CF50E
:10071800A8F1600030F5A9F160009CF650F1600086
:10072800A0F651F16000A4F652F160009CF619F1B0
:100738006000A0F61AF16000A4F61BF165EC33F036
:10074800600064F428F1600068F429F160006CF43A
:100758002AF1600070F42BF1A7EC3FF06000A0F4E0
:1007680031F16000A4F432F16000A8F433F1D7EC61
:1007780044F06000C4F44DF16000C8F44EF160002C
:10078800CCF44FF1C5EC2AF0600034F559F1600063
:1007980038F55AF160003CF55BF1000E01015C6F21
:1007A800000E5D6F3F0E5E6F96EC3BF00101D8A026
:1007B8001AD060009CF64DF16000A0F64EF1600082
:1007C800A4F64FF1000E506F000E516F3F0E526F9E
:1007D800C5EC2AF0600034F5A7F1600038F5A8F1FF
:1007E80060003CF5A9F16000B0F67CF101017D6B79
:1007F8007CBF7D07D8907C377D37D8907C377D3794
:10080800040E7C27000E7D23D90E7C25F66EFA0E89
:100818007D21F76EF86A000EF82260009CF619F147
:100828006000A0F61AF16000A4F61BF165EC33F045
:100838000900F5500101195D0900F5501A59090020
:10084800F5501B590900F5501C59D8A01ED060005E
:100858009CF634F16000A0F635F16000A4F636F19C
:10086800CD0E376FCC0E386F3D0E396F5AEC32F023
:100878006000D0F4A7F16000D4F4A8F16000D8F4C7
:10088800A9F101019F4BA02B43D0AC51040DD90E07
:10089800F324F66EFA0EF420F76EF86A000EF822CA
:1008A80060009CF619F16000A0F61AF16000A4F649
:1008B8001BF165EC33F00900F5500101195D0900E1
:1008C800F5501A590900F5501B590900F5501C59E3
:1008D800D8B01ED060009CF634F16000A0F635F167
:1008E8006000A4F636F1000E376F200E386F410E07
:1008F800396F5AEC32F06000D0F4A7F16000D4F4FC
:10090800A8F16000D8F4A9F101019F07D8A0A007B9
:10091800AEB3AEB79ED0ABBF0AD0AB5104E10B0E5D
:10092800AA5DD8A004D0000EAB6F0A0EAA6F6000B3
:100938009CF619F16000A0F61AF16000A4F61BF10C
:1009480065EC33F0600064F4A3F1600068F4A4F18E
:1009580060006CF4A5F1600070F4A6F126D00101E6
:10096800AA07D8A0AB0760008CF605F1600090F6E6
:1009780006F1600094F607F1600098F608F10A0E97
:10098800096F000E0A6F000E0B6F000E0C6F34EC2F
:100998003CF0600014F4A3F1600018F4A4F16000C6
:1009A8001CF4A5F1600020F4A6F10101A351A411E3
:1009B800A511A611D8B41DD060008CF612F1600004
:1009C80090F613F1600094F614F1600098F615F1B2
:1009D8000A0E166F000E176F000E186F000E196FB3
:1009E80038EC3FF001011251131114111511D8B44C
:1009F800B6D7AB51800A7C6FAC51AA5D800EACBFF4
:100A08007F0E7C59D8B025D060009CF64AF1600072
:100A1800A0F64BF16000A4F64CF1AA510008AC25F1
:100A28000BEC1DF060000CF54DF1600010F54EF177
:100A3800600014F54FF1EDEC34F0600028F5A7F1F3
:100A480060002CF5A8F1600030F5A9F16000A8F667
:100A5800ACF1050E0101AA257C6F000EAB217D6F5C
:100A68007C51A15F7D51A25BAA51AB11D8A402D0E1
:100A7800AEA703D0A107D8A0A207030EAD157C6FBF
:100A8800000EAE157D6F7C517D11D8B403D0A1073F
:100A9800D8A0A207ADA538D0ADA314D0ADB104D06D
:100AA800000E876F2B0E03D0000E876F2D0E866FFA
:100AB80060008BF5D9FF60008FF5DAFF60001BF648
:100AC800DFFF0AD0ADA118D060008BF5D9FF600018
:100AD8008FF5DAFF200EDF6E624B632B0DD06000BE
:100AE8008BF5D9FF60008FF5DAFF300EDF6E624BB1
:100AF800632BA107D8A0A207A2BF3FD0A251EFE164
:100B0800A105D8A03AD0EBD7ADA70ED014D060007D
:100B18008BF5D9FF60008FF5DAFF200EDF6E624B90
:100B2800632BA107D8A0A207A2BF05D0A251EFE16D
:100B3800A105D8B0ECD7ADA314D0ADB104D0000E48
:100B4800896F2B0E03D0000E896F2D0E886F600001
:100B58008BF5D9FF60008FF5DAFF600023F6DFFF21
:100B68000AD0ADA10AD060008BF5D9FF60008FF5DF
:100B7800DAFF200EDF6E624B632B60009CF619F1E2
:100B88006000A0F61AF16000A4F61BF165EC33F0E2
:100B9800600064F4A3F1600068F4A4F160006CF4F0
:100BA800A5F1600070F4A6F160008CF605F1600014
:100BB80090F606F1600094F607F1600098F608F1E7
:100BC8000101AC51040DD90EF324F66EFA0EF4208F
:100BD800F76EF86A000EF82209006F00D4FF09F1D9
:100BE80009006F00D4FF0AF109006F00D4FF0BF170
:100BF8000A006F00D4FF0CF134EC3CF00101055100
:100C0800300F60008BF5D9FF60008FF5DAFFDF6EDB
:100C1800624B632B60008CF612F1600090F613F1C2
:100C2800600094F614F1600098F615F1AC51040DCB
:100C3800D90EF324F66EFA0EF420F76EF86A000E59
:100C4800F82209006F00D4FF16F109006F00D4FFE5
:100C580017F109006F00D4FF18F10A006F00D4FFE4
:100C680019F138EC3FF0600048F4A3F160004CF44F
:100C7800A4F1600050F4A5F1600054F4A6F101015C
:100C8800AA51AB11D8A402D0AEA7A2D060008BF5B0
:100C9800D9FF60008FF5DAFF2E0EDF6E624B632BF3
:100CA800AC51AA5F000EACBFFF0EAB5B7AD0AEA30F
:100CB8000ED0A351A411A511A611D8A408D0000ED6
:100CC800AC6FAC51AA6FAB6BAABFAB077DD060000D
:100CD8008CF605F1600090F606F1600094F607F1D5
:100CE800600098F608F1AC51040DD90EF324F66EA5
:100CF800FA0EF420F76EF86A000EF82209006F0069
:100D0800D4FF09F109006F00D4FF0AF109006F0050
:100D1800D4FF0BF10A006F00D4FF0CF134EC3CF067
:100D280001010551300F60008BF5D9FF60008FF588
:100D3800DAFFDF6E624B632B60008CF612F1600005
:100D480090F613F1600094F614F1600098F615F12E
:100D5800AC51040DD90EF324F66EFA0EF420F76E9A
:100D6800F86A000EF82209006F00D4FF16F1090096
:100D78006F00D4FF17F109006F00D4FF18F10A00C3
:100D88006F00D4FF19F138EC3FF0600048F4A3F18C
:100D980060004CF4A4F1600050F4A5F1600054F434
:100DA800A6F10101AC07AC29D8B40ED080D76000F9
:100DB8008BF5D9FF60008FF5DAFF300EDF6E624BDE
:100DC800632BAA07D8A0AB07AA51AB11D8A4EFD7B9
:100DD800ADAB08D060008BF5D9FF60008FF5DAFF66
:100DE800450E07D060008BF5D9FF60008FF5DAFF5C
:100DF800650EDF6E624B632BA0AF0CD09F6DA01FFA
:100E0800D8B0A02B60008BF5D9FF60008FF5DAFF12
:100E18002D0E07D060008BF5D9FF60008FF5DAFF43
:100E28002B0EDF6E624B632B60007CF60BF16000CB
:100E380080F60CF1000E0E6F0A0E0D6F7AEC3CF086
:100E480001010B51300F60008BF5D9FF60008FF561
:100E5800DAFFDF6E624B632B60007CF605F1600001
:100E680080F606F1000E086F0A0E076F88EC3EF058
:100E780001010551300F60008BF5D9FF60008FF537
:100E8800DAFFDF6E624B632BADB7A2BF9BEF0EF0AC
:100E9800A25104E1A105D8A09BEF0EF060008BF5EC
:100EA800D9FF60008FF5DAFF200EDF6E624B632BEF
:100EB800A107D8A0A207A151A211D8B49BEF0EF0A8
:100EC800EDD7AEA32CD1A0AF0AD0010E9F257C6F21
:100ED800000EA0217D6F7C51AA5F7D51AB5B600045
:100EE8009CF619F16000A0F61AF16000A4F61BF157
:100EF80065EC33F0600064F4A3F1600068F4A4F1D9
:100F080060006CF4A5F1600070F4A6F1000E010118
:100F1800AC6F0A0EAC19D8B41BD0AC51040DD90E65
:100F2800F324F66EFA0EF420F76EF86A000EF82233
:100F38000900F550A35D0900F550A4590900F550C2
:100F4800A5590900F550A659D8A002D0AC2BE1D775
:100F5800AC51AA5F000EACBFFF0EAB5BABBF06D0B7
:100F6800AB5124E10D0EAA5DD8B020D060009CF6EC
:100F78004DF16000A0F64EF16000A4F64FF1AA51C1
:100F8800DEEC23F060000CF550F1600010F551F133
:100F9800600014F552F1C5EC2AF0600034F5A7F1B1
:100FA800600038F5A8F160003CF5A9F10101AA51EB
:100FB8000BEC1DF060000CF592F1600010F593F158
:100FC800600014F594F1600048F634F160004CF6C6
:100FD80035F1600050F636F160009CF650F1600083
:100FE800A0F651F16000A4F652F160008CF628F1E9
:100FF800600090F629F1600094F62AF1600098F6F6
:101008002BF1A7EC3FF06000A0F431F16000A4F4EC
:1010180032F16000A8F433F1D7EC44F06000C4F476
:101028004DF16000C8F44EF16000CCF44FF1C5EC0E
:101038002AF0600034F537F1600038F538F16000C7
:101048003CF539F15AEC32F06000D0F492F16000CE
:10105800D4F493F16000D8F494F1600048F619F1E3
:1010680060004CF61AF1600050F61BF165EC33F0A5
:10107800600064F4A3F1600068F4A4F160006CF40B
:10108800A5F1600070F4A6F127D060008CF605F198
:10109800600090F606F1600094F607F1600098F69B
:1010A80008F10A0E0101096F000E0A6F000E0B6F9E
:1010B800000E0C6F34EC3CF0600014F4A3F16000F7
:1010C80018F4A4F160001CF4A5F1600020F4A6F166
:1010D8000101AA07D8A0AB070101AA51AB11D8B4E6
:1010E80046D060008CF612F1600090F613F16000B3
:1010F80094F614F1600098F615F10A0E166F000EBA
:10110800176F000E186F000E196F38EC3FF00101D1
:101118001251131114111511D8A429D0B6D7ABBF89
:1011280006D0AB5124E10D0EAA5DD8B020D06000E6
:101138009CF64DF16000A0F64EF16000A4F64FF168
:10114800AA51DEEC23F060000CF550F1600010F5B8
:1011580051F1600014F552F1C5EC2AF0600034F545
:10116800A7F1600038F5A8F160003CF5A9F101018C
:10117800A0BF06D0A05122E10A0E9F5DD8B01ED0B4
:10118800A751A811A911D8B467D060009CF619F12D
:101198006000A0F61AF16000A4F61BF165EC33F0CC
:1011A800010119511A111B111C11D8B4A0BF54D038
:1011B800A05104E1020E9F5DD8A04ED060006CF6ED
:1011C80059F1600070F65AF1600074F65BF1700E28
:1011D8005C6F890E5D6F400E5E6F96EC3BF001010F
:1011E800D8B002D0F70E01D0F80E9F27FF0EA0232B
:1011F8009F510BEC1DF060000CF59BF1600010F5A1
:101208009CF1600014F59DF160009CF605F160000A
:10121800A0F606F16000A4F607F160006CF608F18C
:10122800600070F609F1600074F60AF1C5EC2EF062
:10123800600014F4A3F1600018F4A4F160001CF439
:10124800A5F1600020F4A6F1000E0101A76F000EC1
:10125800A86F000EA96F47D060009CF619F16000D6
:10126800A0F61AF16000A4F61BF165EC33F06000FB
:1012780064F4A3F1600068F4A4F160006CF4A5F1D3
:10128800600070F4A6F160009CF659F16000A0F6C9
:101298005AF16000A4F65BF160008CF628F160005A
:1012A80090F629F1600094F62AF1600098F62BF187
:1012B800A7EC3FF06000A0F45CF16000A4F45DF1DD
:1012C8006000A8F45EF119EC42F0600064F5A7F143
:1012D800600068F5A8F160006CF5A9F1000E010145
:1012E800A06F000E9F6F010EAC6F0A0EAC19D8B438
:1012F8001BD0AC51040DD90EF324F66EFA0EF4206F
:10130800F76EF86A000EF8220900F550A35D09008F
:10131800F550A4590900F550A5590900F550A659EA
:10132800D8A002D0AC2BE1D76000B0F67CF17D6B81
:101338007CBF7D07AA517C27AB517D239F517C2719
:10134800A0517D237C51A15F7D51A25BAEB704D033
:10135800AA51AB11D8B403D0A107D8A0A207030E95
:10136800AD157C6F000EAE157D6F7C517D11D8B424
:1013780003D0A107D8A0A207ADA538D0ADA314D03B
:10138800ADB104D0000E8B6F2B0E03D0000E8B6F07
:101398002D0E8A6F60008BF5D9FF60008FF5DAFF9C
:1013A80060002BF6DFFF0AD0ADA118D060008BF5E6
:1013B800D9FF60008FF5DAFF200EDF6E624B632BDA
:1013C8000DD060008BF5D9FF60008FF5DAFF300E85
:1013D800DF6E624B632BA107D8A0A207A2BFA1D0E2
:1013E800A251EFE1A105D8A09CD0EBD7ADA70ED0B4
:1013F80014D060008BF5D9FF60008FF5DAFF200E5E
:10140800DF6E624B632BA107D8A0A207A2BF05D04D
:10141800A251EFE1A105D8B0ECD7ADA314D0ADB17E
:1014280004D0000E8D6F2B0E03D0000E8D6F2D0E85
:101438008C6F60008BF5D9FF60008FF5DAFF6000D4
:1014480033F6DFFF6CD0ADA16CD060008BF5D9FF0F
:1014580060008FF5DAFF200E61D060008CF605F190
:10146800600090F606F1600094F607F1600098F6C7
:1014780008F1AC51040DD90EF324F66EFA0EF420DF
:10148800F76EF86A000EF82209006F00D4FF09F120
:1014980009006F00D4FF0AF109006F00D4FF0BF1B7
:1014A8000A006F00D4FF0CF134EC3CF0600014F437
:1014B8009BF1600018F49CF160001CF49DF1600041
:1014C80020F49EF160006CF612F1600070F613F1E2
:1014D800600074F614F1600078F615F10A0E010147
:1014E800166F000E176F000E186F000E196F38EC8C
:1014F8003FF0600048F49BF160004CF49CF1600000
:1015080050F49DF1600054F49EF101019B51300F9D
:1015180060008BF5D9FF60008FF5DAFFDF6E624B54
:10152800632BAC07AC29D8B40ED097D760008BF5E5
:10153800D9FF60008FF5DAFF300EDF6E624B632B48
:101548009F07D8A0A007A0BF05D0A051EFE19F0535
:10155800D8B0ECD7ABBF09D0AB5104E1090EAA5DF6
:10156800D8A003D0080EAC6F03D06000A8F6ACF189
:10157800AC51AA5F000EACBFFF0EAB5BAC51D8A458
:1015880002D0AEA70AD060008BF5D9FF60008FF5B6
:10159800DAFF2E0EDF6E624B632BAC510BEC1DF0A5
:1015A80060000CF582F1600010F583F1600014F51D
:1015B80084F160009CF637F16000A0F638F1600015
:1015C800A4F639F1600008F634F160000CF635F144
:1015D800600010F636F15AEC32F06000D0F419F1E0
:1015E8006000D4F41AF16000D8F41BF165EC33F014
:1015F800600064F4A3F1600068F4A4F160006CF486
:10160800A5F1600070F4A6F19AD060008CF605F19F
:10161800600090F606F1600094F607F1600098F615
:1016280008F10101AC51040DD90EF324F66EFA0E3F
:10163800F420F76EF86A000EF82209006F00D4FF54
:1016480009F109006F00D4FF0AF109006F00D4FF07
:101658000BF10A006F00D4FF0CF134EC3CF0600091
:1016680014F49BF1600018F49CF160001CF49DF1E7
:10167800600020F49EF160006CF612F1600070F6D4
:1016880013F1600074F614F1600078F615F10A0E93
:101698000101166F000E176F000E186F000E196FFC
:1016A80038EC3FF0600048F49BF160004CF49CF18A
:1016B800600050F49DF1600054F49EF101019B51CB
:1016C800300F60008BF5D9FF60008FF5DAFFDF6E11
:1016D800624B632B60008CF612F1600090F613F1F8
:1016E800600094F614F1600098F615F1AC51040D01
:1016F800D90EF324F66EFA0EF420F76EF86A000E8F
:10170800F82209006F00D4FF16F109006F00D4FF1A
:1017180017F109006F00D4FF18F10A006F00D4FF19
:1017280019F138EC3FF0600048F4A3F160004CF484
:10173800A4F1600050F4A5F1600054F4A6F1010191
:10174800AC07AC29D8B40ED060D760008BF5D9FFB0
:1017580060008FF5DAFF300EDF6E624B632BAA074D
:10176800D8A0AB07AA51AB11D8A4EFD7ADB7A2BF89
:10177800DED2A25103E1A105D8A0D9D260008BF531
:10178800D9FF60008FF5DAFF200EDF6E624B632B06
:10179800A107D8A0A207A151A211D8B4C8D2EED7E8
:1017A800ADBF38D0ADA914D0600067F6D9FF60008E
:1017B8006BF6DAFF6F0078FFA3F16F0078FFA4F1F2
:1017C8006F0078FFA5F16F0078FFA6F1040E12D024
:1017D800600067F6D9FF60006BF6DAFF6F0078FFEC
:1017E800A3F16F0074FFA4F1000EA4BFFF0EA56F54
:1017F800A66F020E9927000E9A23A6AF39D0030EC2
:10180800AD13A61FA51FA41FA36D000EA423A52317
:10181800A6232ED0ADA914D0600067F6D9FF6000CA
:101828006BF6DAFF6F0078FFA3F16F0078FFA4F181
:101838006F0078FFA5F16F0078FFA6F1040E15D0B0
:10184800600067F6D9FF60006BF6DAFF6F0078FF7B
:101858007CF16F0074FF7DF16000F0F5A3F160008A
:10186800F4F5A4F1A56BA66B020E9927000E9A2336
:10187800AA51AB11D8A44BD0A351A411A511A611FC
:10188800D8A445D0AA4BAB2B42D0010EAC6F0A0EA0
:10189800AC19D8B444D0AC51040DD90EF324F66E6B
:1018A800FA0EF420F76EF86A000EF8220900F550D7
:1018B800A35D0900F550A4590900F550A559090080
:1018C800F550A659D8A02BD0AC2BE1D7010EAC6FA0
:1018D800080EAC19D8B423D0AC51040D4F0EF32424
:1018E800F66EFB0EF420F76EF86A000EF822090077
:1018F800F550A35D0900F550A4590900F550A55904
:101908000900F550A659D8A00AD0AC2BE1D7AD51A3
:10191800800B000AD8B4B9D7800AD8B4D7D7800EBC
:10192800ACBF7F0E7C6FAA51AC5DAB51800A7C596D
:10193800D8B004D06000A8F6ACF110D0AB51800A42
:101948007C6FAC51AA5D800EACBF7F0E7C59D8B0BD
:1019580005D0AC51AA6FAB6BAABFAB07A151A211BE
:10196800D8B40DD0030EAD157C6F000EAE157D6F8B
:101978007C517D11D8B403D0A107D8A0A207AEAD81
:1019880013D0A151AA5DAB51800A7C6FA251800A85
:101998007C59D8B005D0AA51A15FAB51A25B04D045
:1019A800000EA26F000EA16F800E7C6F080E7D6F77
:1019B8006000B4F67EF16000B8F67FF17C517E17C6
:1019C8007D517F17800E7E1915E1080E7F19D8A466
:1019D80011D0A2BF0BD0A25104E1030EA15DD8A083
:1019E80005D0FE0EA127FF0EA22304D0000EA26F81
:1019F800000EA16F800EACBF7F0E7C6FA151AC5D55
:101A0800A251800A7C59D8B007D0AC51A15F000E12
:101A1800ACBFFF0EA25B04D0000EA26F000EA16F38
:101A2800ADA55BD0ADA314D0ADB104D0000E8F6FBF
:101A38002B0E03D0000E8F6F2D0E8E6F60008BF56E
:101A4800D9FF60008FF5DAFF60003BF6DFFF31D089
:101A5800ADA108D060008BF5D9FF60008FF5DAFFE3
:101A6800200E26D0800E7C6F080E7D6F6000B4F6C5
:101A78007EF16000B8F67FF17C517E177D517F17AB
:101A8800800E7E1918E1080E7F19D8A414D06000C2
:101A98008BF5D9FF60008FF5DAFF300EDF6E624BF1
:101AA800632B60008BF5D9FF60008FF5DAFF780EA5
:101AB800DF6E624B632BA151A211D8B417D160001D
:101AC8008BF5D9FF60008FF5DAFF300EDF6E624BC1
:101AD800632BA107D8A0A207EED7A151A211D8A4C1
:101AE800ADB711D060008BF5D9FF60008FF5DAFF34
:101AF800200EDF6E624B632BA107D8A0A207A1516D
:101B0800A211D8A4EFD7ADA314D0ADB104D0000E64
:101B1800916F2B0E03D0000E916F2D0E906F600009
:101B28008BF5D9FF60008FF5DAFF600043F6DFFF21
:101B38000AD0ADA10AD060008BF5D9FF60008FF5FF
:101B4800DAFF200EDF6E624B632B800E7C6F080E6F
:101B58007D6F6000B4F67EF16000B8F67FF17C51CD
:101B68007E177D517F17800E7E1903E1080E7F19BD
:101B7800D8A4BCD060008BF5D9FF60008FF5DAFFE0
:101B8800300EDF6E624B632B60008BF5D9FF60006F
:101B98008FF5DAFF780EDF6EA7D06000A8F67CF12B
:101BA8006000ACF67DF1D8907C377D37D8907C37D3
:101BB8007D37D90E7C25F66EFA0E7D21F76EF86A10
:101BC800000EF82209006F00D4FF09F109006F0028
:101BD800D4FF0AF109006F00D4FF0BF10A006F006F
:101BE800D4FF0CF160008CF605F1600090F606F168
:101BF800600094F607F1600098F608F134EC3CF0C8
:101C0800600014F412F1600018F413F160001CF481
:101C180014F1600020F415F10A0E0101166F000E90
:101C2800176F000E186F000E196F38EC3FF00101A6
:101C38001251300FAC6F4FD060008CF605F1600088
:101C480090F606F1600094F607F1600098F608F146
:101C58006000A8F67CF16000ACF67DF1D8907C3786
:101C68007D37D8907C377D374F0E7C25F66EFB0E7E
:101C78007D21F76EF86A000EF82209006F00D4FF84
:101C880009F109006F00D4FF0AF109006F00D4FFC1
:101C98000BF10A006F00D4FF0CF134EC3CF00101A9
:101CA80005510F0B856F8551010DCC0EF324F66E8F
:101CB800FE0EF420F76EF86A000EF82208006F0096
:101CC800D4FFACF108D0AD51800B000AD8B465D769
:101CD800800AD8B4B1D760008BF5D9FF60008FF5C2
:101CE800DAFF6000B3F6DFFF624B632BAA07D8A0C8
:101CF800AB07AA29E8E1AB29D8A4E5D7ADB7A2BFBD
:101D080016D0A25103E1A105D8A011D060008BF52F
:101D1800D9FF60008FF5DAFF200EDF6E624B632B70
:101D2800A107D8A0A207A151A211D8A4EFD760009B
:101D380093F5F6FF600097F5F7FF644B652BF86A9B
:101D480008006F00D4FFACF1AC51D8A460EF00F0EC
:101D580060008BF5D9FF60008FF5DAFF000EDF6EAB
:101D680012006D0E0001A06F000EA16FF1EF1CF0C4
:101D7800250EB319D8B40DD06000A7F1D9FF6000C3
:101D8800ABF1DAFF6000CFF2DFFF694B6A2BF1EFAE
:101D98001CF0000EA96F000EA86F000EB56F000EA4
:101DA800B46F10D00001B4870BD00001B48108D003
:101DB8000001B48305D00001B58702D00001B485C5
:101DC8006B4B6C2B6000AFF1F6FF6000B3F1F7FFCF
:101DD800F86A0800F550200AD8B4E7D7030AD8B43F
:101DE800EAD7080AD8B4E4D7060AD8B4DBD71D0A5C
:101DF800D8B4E4D70001B4B3B491B4B7B4956000D3
:101E0800AFF1F6FF6000B3F1F7FFF86A0800F5508C
:101E18002AEC45F0D8A03ED0000E0001A96F000EB4
:101E2800A86F6000A0F212F06000A4F213F0000E98
:101E3800156E0A0E146EC0EC44F0600048F0A8F06D
:101E480060004CF0A9F0D00E0001836FFF0E846F84
:101E58006000AFF1F6FF6000B3F1F7FFF86A080021
:101E6800F550856F866B835185278451862385516C
:101E7800A8278651A9236B4B6C2B6000AFF1F6FFA6
:101E88006000B3F1F7FFF86A0800F5502AEC45F056
:101E9800D8B0C7D76000AFF1F6FF6000B3F1F7FF25
:101EA800F86A0800F5502E0AD8A438D00001B58D7C
:101EB8006B4B6C2B000EB26F000EB16F21D060001F
:101EC800C4F212F06000C8F213F0000E156E0A0E8C
:101ED800146EC0EC44F06000AFF1F6FF6000B3F19F
:101EE800F7FFF86A0800F5501226000E1322D00EEC
:101EF80012240001B16FFF0E1320B26F6B4B6C2BD5
:101F08006000AFF1F6FF6000B3F1F7FFF86A080070
:101F1800F5502AEC45F0D8A0DED0D1D7000E00014C
:101F2800B26F000EB16FB589D6D0B489D4D0B5855B
:101F380007D1B48BB58104D1B48BB58301D1B48FEB
:101F4800FFD0600083F2D9FF600087F2DAFF6F00EC
:101F580078FF9CF06F0074FF9DF0020EA027000E22
:101F6800A1239C519D11D8A404D0930E9C6FFF0E01
:101F78009D6F000E9F6F000E9E6F03D000019E4B59
:101F88009F2B9E519C25836F9F519D21846F6000DC
:101F98000FF2F6FF600013F2F7FF000EF86E0F0E57
:101FA800F76403D00800F55007D06F00DBFFE9FFA6
:101FB8006F00DFFFEAFFEF500009D8A4DFD7000168
:101FC800B151B211D8B40CD09E51B15D9F51B259E4
:101FD800D8B006D06000C4F29EF06000C8F29FF04E
:101FE800A8519E5DA9519F59D8B005D09E51A85FB0
:101FF8009F51A95B04D0000EA96F000EA86FB4A76B
:102008000BD034D06000A7F1D9FF6000ABF1DAFF44
:10201800200EDF6E694B6A2BA807D8A0A907A8294C
:10202800F1E1A929D8B422D0EDD7600073F2F6FF08
:10203800600077F2F7FF000EF86E6000A7F1D9FF95
:102048006000ABF1DAFF0F0EF76403D00800F5501B
:1020580007D06F00DBFFE9FF6F00DFFFEAFFEF50FB
:10206800DF6E00019C4B9D2B694B6A2B9E07D8A005
:102078009F079E29DAE19F29D8A4D7D7B4B70CD0F7
:10208800F1EF1CF06000A7F1D9FF6000ABF1DAFFB7
:10209800200EDF6E694B6A2BA807D8A0A907A829CC
:1020A800F1E1A929D8B4F1EF1CF0ECD7600083F274
:1020B800D9FF600087F2DAFFDF50B36F020EA02766
:1020C800000EA123B30E9C6F000E9D6F000E9F6F34
:1020D800010E9E6F74D76000AFF1F6FF6000B3F198
:1020E800F7FF00016B4B6C2BF86A08006F00D4FFF8
:1020F800B3F0B351000AD8B402EF1DF0450AD8B4C2
:1021080018D7020AD8B418D7240AD8B4CFD7070AE0
:10211800D8B416D0010AD8B40DD7030AD8B407D753
:10212800010AD8B40AD70E0AD8B40AD0050AD8B416
:10213800FCD61F0AD8B405D70B0AD8B400D7C2D723
:10214800070EB515D8B42BEF1AF0B5A904D0000EB8
:10215800B26F060EB16F600083F2D9FF600087F29C
:10216800DAFF6F0078FFAEF06F0078FFAFF06F0016
:1021780074FFB0F0030EA027000EA123B0AF17D054
:102188006000B8F230F06000BCF231F06000C0F2DC
:1021980032F003EC45F06000C0F0AEF06000C4F02F
:1021A800AFF06000C8F0B0F0030E0001B413000EE9
:1021B800A76F000EA66FAE51AF11B011D8B4A5D05D
:1021C800820E836FFF0E846F6000B8F285F06000A6
:1021D800BCF286F06000C0F287F06000C4F288F0BC
:1021E800100E05D0D8908833873386338533E82E90
:1021F800F9D785518325A66F000E8421A76FA607FE
:10220800D8A0A707600098F212F060009CF213F0C3
:10221800000E156E030E146EC0EC44F0600048F01A
:10222800A6F060004CF0A7F0600098F20AF0600099
:102238009CF20BF0000E0D6E0A0E0C6E49EC3DF090
:10224800600028F0A6F060002CF0A7F00001A7AF0E
:1022580003D0A607D8A0A707A651000893EC1FF043
:10226800600008F1A2F060000CF1A3F0600010F12A
:10227800A4F0600088F233F060008CF234F0600063
:1022880090F235F06000B8F236F06000BCF237F03A
:102298006000C0F238F0E0EC32F06000CCF0A2F060
:1022A8006000D0F0A3F06000D4F0A4F0600088F2E1
:1022B80060F060008CF261F0600090F262F0000E55
:1022C8000001636F800E646F3F0E656FE5EC3BF0B5
:1022D8000001D8B004D0A607D8A0A70716D0600080
:1022E80088F260F060008CF261F0600090F262F0B9
:1022F800000E636F200E646F410E656FE5EC3BF0D6
:102308000001D8A002D0A64BA72BA7BF05D0A75184
:1023180006E1A605D8B003D0010EB36F03D0600064
:1023280098F2B3F0B5B116D0B5A3BEEF15F0A7AFCC
:1023380006D0FC0EA65DFF0EA759D8A00BD0B15150
:10234800A65DA751800A836FB251800A8359D8A02D
:10235800BEEF15F0B151B211D8A4B5A303D0B1079F
:10236800D8A0B207B25104E1090EB15DD8A003D0DC
:10237800080EB36F03D06000C4F2B3F0AE51AF11D2
:10238800B011D8B41DD16000B8F249F06000BCF2B9
:102398004AF06000C0F24BF0B3510008A62593EC58
:1023A8001FF0600008F14CF060000CF14DF0600087
:1023B80010F14EF06CEC35F0600024F1AEF06000E6
:1023C80028F1AFF060002CF1B0F06000B8F24FF0E7
:1023D8006000BCF250F06000C0F251F06000B8F24A
:1023E80018F06000BCF219F06000C0F21AF06BEC53
:1023F80034F0600060F027F0600064F028F06000BE
:1024080068F029F060006CF02AF0DDEC3FF0600025
:102418009CF030F06000A0F031F06000A4F032F0E1
:1024280003EC45F06000C0F04CF06000C4F04DF0E3
:102438006000C8F04EF0AEEC2BF0600030F160F0B8
:10244800600034F161F0600038F162F0000E0001C4
:10245800636F000E646F3F0E656FE5EC3BF00001A3
:10246800D8A01AD06000B8F24CF06000BCF24DF071
:102478006000C0F24EF0000E4F6E000E506E3F0E20
:10248800516EAEEC2BF0600030F1AEF0600034F12C
:10249800AFF0600038F1B0F06000CCF283F00001DA
:1024A800846B83BF8407D89083378437D890833769
:1024B8008437040E8327000E8423D90E8325F66EF5
:1024C800FA0E8421F76EF86A000EF8226000B8F25E
:1024D80018F06000BCF219F06000C0F21AF06BEC62
:1024E80034F00900F550185C0900F5501958090036
:1024F800F5501A580900F5501B58D8A01ED0600096
:10250800B8F233F06000BCF234F06000C0F235F08D
:10251800CD0E366ECC0E376E3D0E386EE0EC32F0D6
:102528006000CCF0AEF06000D0F0AFF06000D4F006
:10253800B0F00001A64BA72B43D00001B351040D06
:10254800D90EF324F66EFA0EF420F76EF86A000E30
:10255800F8226000B8F218F06000BCF219F06000D0
:10256800C0F21AF06BEC34F00900F550185C090061
:10257800F55019580900F5501A580900F5501B581C
:10258800D8B01ED06000B8F233F06000BCF234F06E
:102598006000C0F235F0000E366E200E376E410E28
:1025A800386EE0EC32F06000CCF0AEF06000D0F0B5
:1025B800AFF06000D4F0B0F00001A607D8A0A707DC
:1025C8000001B5B3B5B79ED0B2BF0AD0B25104E18D
:1025D8000B0EB15DD8A004D0000EB26F0A0EB16F19
:1025E8006000B8F218F06000BCF219F06000C0F2A8
:1025F8001AF06BEC34F0600060F0AAF0600064F050
:10260800ABF0600068F0ACF060006CF0ADF026D084
:102618000001B107D8A0B2076000A8F204F060007A
:10262800ACF205F06000B0F206F06000B4F207F01A
:102638000A0E086E000E096E000E0A6E000E0B6E72
:1026480004EC3DF0600010F0AAF0600014F0ABF06C
:10265800600018F0ACF060001CF0ADF00001AA5169
:10266800AB11AC11AD11D8B41CD06000A8F211F0B8
:102678006000ACF212F06000B0F213F06000B4F247
:1026880014F00A0E156E000E166E000E176E000E70
:10269800186E70EC3FF01150121013101410D8B4CB
:1026A800B7D70001B251800A836FB351B15D800E74
:1026B800B3BF7F0E8359D8B025D06000B8F249F077
:1026C8006000BCF24AF06000C0F24BF0B151000863
:1026D800B32593EC1FF0600008F14CF060000CF19A
:1026E8004DF0600010F14EF06CEC35F0600024F114
:1026F800AEF0600028F1AFF060002CF1B0F060009F
:10270800C4F2B3F0050E0001B125836F000EB221AB
:10271800846F8351A85F8451A95BB151B211D8A4C9
:1027280002D0B5A703D0A807D8A0A907030EB415EF
:10273800836F000EB515846F83518411D8B403D00C
:10274800A807D8A0A907B4A538D0B4A314D0B4B1A9
:1027580004D0000E8E6F2B0E03D0000E8E6F2D0E40
:102768008D6F6000A7F1D9FF6000ABF1DAFF600060
:1027780037F2DFFF0AD0B4A118D06000A7F1D9FF63
:102788006000ABF1DAFF200EDF6E694B6A2B0DD0CB
:102798006000A7F1D9FF6000ABF1DAFF300EDF6E01
:1027A800694B6A2BA807D8A0A907A9BF3FD0A95190
:1027B800EFE1A805D8A03AD0EBD7B4A70ED014D033
:1027C8006000A7F1D9FF6000ABF1DAFF200EDF6EE1
:1027D800694B6A2BA807D8A0A907A9BF05D0A9519A
:1027E800EFE1A805D8B0ECD7B4A314D0B4B104D0A5
:1027F800000E906F2B0E03D0000E906F2D0E8F6F72
:102808006000A7F1D9FF6000ABF1DAFF60003FF28A
:10281800DFFF0AD0B4A10AD06000A7F1D9FF600099
:10282800ABF1DAFF200EDF6E694B6A2B6000B8F25D
:1028380018F06000BCF219F06000C0F21AF06BECFE
:1028480034F0600060F0AAF0600064F0ABF0600063
:1028580068F0ACF060006CF0ADF06000A8F204F035
:102868006000ACF205F06000B0F206F06000B4F26F
:1028780007F00001B351040DD90EF324F66EFA0ED9
:10288800F420F76EF86A000EF82209006F00D4FFF2
:1028980008F009006F00D4FF09F009006F00D4FFA9
:1028A8000AF00A006F00D4FF0BF004EC3DF004506E
:1028B800300F6000A7F1D9FF6000ABF1DAFFDF6EDF
:1028C8000001694B6A2B6000A8F211F06000ACF2BD
:1028D80012F06000B0F213F06000B4F214F0B351DB
:1028E800040DD90EF324F66EFA0EF420F76EF86A8A
:1028F800000EF82209006F00D4FF15F009006F00E0
:10290800D4FF16F009006F00D4FF17F00A006F001B
:10291800D4FF18F070EC3FF0600044F0AAF06000BB
:1029280048F0ABF060004CF0ACF0600050F0ADF057
:102938000001B151B211D8A402D0B5A7A2D060004D
:10294800A7F1D9FF6000ABF1DAFF2E0EDF6E694BFD
:102958006A2BB351B15F000EB3BFFF0EB25B7AD0E2
:10296800B5A30ED0AA51AB11AC11AD11D8A408D0A3
:10297800000EB36FB351B16FB26BB1BFB2077DD068
:102988006000A8F204F06000ACF205F06000B0F25C
:1029980006F06000B4F207F0B351040DD90EF32429
:1029A800F66EFA0EF420F76EF86A000EF8220900A7
:1029B8006F00D4FF08F009006F00D4FF09F0090088
:1029C8006F00D4FF0AF00A006F00D4FF0BF004EC8C
:1029D8003DF00450300F6000A7F1D9FF6000ABF163
:1029E800DAFFDF6E0001694B6A2B6000A8F211F074
:1029F8006000ACF212F06000B0F213F06000B4F2C4
:102A080014F0B351040DD90EF324F66EFA0EF42027
:102A1800F76EF86A000EF82209006F00D4FF15F06F
:102A280009006F00D4FF16F009006F00D4FF17F0FB
:102A38000A006F00D4FF18F070EC3FF0600044F01B
:102A4800AAF0600048F0ABF060004CF0ACF0600019
:102A580050F0ADF00001B307B329D8B40ED080D739
:102A68006000A7F1D9FF6000ABF1DAFF300EDF6E2E
:102A7800694B6A2BB107D8A0B207B151B211D8A4DB
:102A8800EFD7B4AB08D06000A7F1D9FF6000ABF175
:102A9800DAFF450E07D06000A7F1D9FF6000ABF15F
:102AA800DAFF650EDF6E694B6A2BA7AF0CD0A66DF7
:102AB800A71FD8B0A72B6000A7F1D9FF6000ABF122
:102AC800DAFF2D0E07D06000A7F1D9FF6000ABF147
:102AD800DAFF2B0EDF6E694B6A2B600098F20AF062
:102AE80060009CF20BF0000E0D6E0A0E0C6E49ECA5
:102AF8003DF00A50300F6000A7F1D9FF6000ABF13C
:102B0800DAFFDF6E0001694B6A2B600098F204F06F
:102B180060009CF205F0000E076E0A0E066EFEECD1
:102B28003EF00450300F6000A7F1D9FF6000ABF110
:102B3800DAFFDF6E0001694B6A2BB4B7A9BFF1EF6A
:102B48001CF0A95104E1A805D8A0F1EF1CF0600021
:102B5800A7F1D9FF6000ABF1DAFF200EDF6E694BF9
:102B68006A2BA807D8A0A907A851A911D8B4F1EFD2
:102B78001CF0EDD7B5A32AD1A7AF0AD0010EA62520
:102B8800836F000EA721846F8351B15F8451B25BBC
:102B98006000B8F218F06000BCF219F06000C0F2F2
:102BA8001AF06BEC34F0600060F0AAF0600064F09A
:102BB800ABF0600068F0ACF060006CF0ADF0000EB7
:102BC8000001B36F0A0EB319D8B41BD0B351040D6A
:102BD800D90EF324F66EFA0EF420F76EF86A000E9A
:102BE800F8220900F550AA5D0900F550AB59090013
:102BF800F550AC590900F550AD59D8A002D0B32B07
:102C0800E1D7B351B15F000EB3BFFF0EB25BB2BFE5
:102C180006D0B25124E10D0EB15DD8B020D06000CD
:102C2800B8F24CF06000BCF24DF06000C0F24EF01B
:102C3800B15160EC25F0600008F14FF060000CF134
:102C480050F0600010F151F0AEEC2BF0600030F164
:102C5800AEF0600034F1AFF0600038F1B0F0000180
:102C6800B15193EC1FF0600008F199F060000CF18D
:102C78009AF0600010F19BF0600064F233F060009D
:102C880068F234F060006CF235F06000B8F24FF092
:102C98006000BCF250F06000C0F251F06000A8F291
:102CA80027F06000ACF228F06000B0F229F0600074
:102CB800B4F22AF0DDEC3FF060009CF030F06000E8
:102CC800A0F031F06000A4F032F003EC45F06000B1
:102CD800C0F04CF06000C4F04DF06000C8F04EF059
:102CE800AEEC2BF0600030F136F0600034F137F0D4
:102CF800600038F138F0E0EC32F06000CCF099F088
:102D08006000D0F09AF06000D4F09BF0600064F2AC
:102D180018F0600068F219F060006CF21AF06BECC1
:102D280034F0600060F0AAF0600064F0ABF060007E
:102D380068F0ACF060006CF0ADF026D06000A8F24E
:102D480004F06000ACF205F06000B0F206F060003C
:102D5800B4F207F00A0E086E000E096E000E0A6E35
:102D6800000E0B6E04EC3DF0600010F0AAF060005D
:102D780014F0ABF0600018F0ACF060001CF0ADF09F
:102D88000001B107D8A0B2070001B151B211D8B4FF
:102D980046D06000A8F211F06000ACF212F06000BA
:102DA800B0F213F06000B4F214F00A0E156E000EC3
:102DB800166E000E176E000E186E70EC3FF0115074
:102DC800121013101410D8A42AD0B8D70001B2BF1B
:102DD80006D0B25124E10D0EB15DD8B020D060000C
:102DE800B8F24CF06000BCF24DF06000C0F24EF05A
:102DF800B15160EC25F0600008F14FF060000CF173
:102E080050F0600010F151F0AEEC2BF0600030F1A2
:102E1800AEF0600034F1AFF0600038F1B0F00001BE
:102E2800A7BF06D0A75123E10A0EA65DD8B01FD0D0
:102E3800AE51AF11B011D8B468D06000B8F218F034
:102E48006000BCF219F06000C0F21AF06BEC34F0CC
:102E5800185019101A101B10D8A457D00001A7BF7A
:102E680054D0A75104E1020EA65DD8A04ED0600050
:102E780088F260F060008CF261F0600090F262F01D
:102E8800700E636F890E646F400E656FE5EC3BF062
:102E98000001D8B002D0F70E01D0F80EA627FF0E19
:102EA800A723A65193EC1FF0600008F1A2F0600080
:102EB8000CF1A3F0600010F1A4F06000B8F204F087
:102EC8006000BCF205F06000C0F206F0600088F215
:102ED80007F060008CF208F0600090F209F065ECF1
:102EE8002FF0600010F0AAF0600014F0ABF0600062
:102EF80018F0ACF060001CF0ADF0000E0001AE6FF1
:102F0800000EAF6F000EB06F47D06000B8F218F037
:102F18006000BCF219F06000C0F21AF06BEC34F0FB
:102F2800600060F0AAF0600064F0ABF0600068F048
:102F3800ACF060006CF0ADF06000B8F260F06000DA
:102F4800BCF261F06000C0F262F06000A8F227F005
:102F58006000ACF228F06000B0F229F06000B4F232
:102F68002AF0DDEC3FF060009CF063F06000A0F018
:102F780064F06000A4F065F06DEC42F0600080F150
:102F8800AEF0600084F1AFF0600088F1B0F0000EA0
:102F98000001A76F000EA66F010EB36F0A0EB319DA
:102FA800D8B41BD0B351040DD90EF324F66EFA0E23
:102FB800F420F76EF86A000EF8220900F550AA5DB1
:102FC8000900F550AB590900F550AC590900F55006
:102FD800AD59D8A002D0B32BE1D76000CCF283F072
:102FE800846B83BF8407B1518327B2518423A651D0
:102FF8008327A75184238351A85F8451A95BB5B760
:1030080004D0B151B211D8B403D0A807D8A0A907E9
:10301800030EB415836F000EB515846F83518411A8
:10302800D8B403D0A807D8A0A907B4A538D0B4A3AA
:1030380014D0B4B104D0000E926F2B0E03D0000E42
:10304800926F2D0E916F6000A7F1D9FF6000ABF170
:10305800DAFF600047F2DFFF0AD0B4A118D06000A1
:10306800A7F1D9FF6000ABF1DAFF200EDF6E694BE4
:103078006A2B0DD06000A7F1D9FF6000ABF1DAFF31
:10308800300EDF6E694B6A2BA807D8A0A907A9BF25
:10309800A0D0A951EFE1A805D8A09BD0EBD7B4A741
:1030A8000ED014D06000A7F1D9FF6000ABF1DAFFB1
:1030B800200EDF6E694B6A2BA807D8A0A907A9BF05
:1030C80005D0A951EFE1A805D8B0ECD7B4A314D026
:1030D800B4B104D0000E946F2B0E03D0000E946F81
:1030E8002D0E936F6000A7F1D9FF6000ABF1DAFFF6
:1030F80060004FF2DFFF6BD0B4A16BD06000A7F186
:10310800D9FF6000ABF1DAFF200E60D06000A8F2B2
:1031180004F06000ACF205F06000B0F206F0600068
:10312800B4F207F0B351040DD90EF324F66EFA0E7B
:10313800F420F76EF86A000EF82209006F00D4FF39
:1031480008F009006F00D4FF09F009006F00D4FFF0
:103158000AF00A006F00D4FF0BF004EC3DF06000A9
:1031680010F0A2F0600014F0A3F0600018F0A4F0D2
:1031780060001CF0A5F0600088F211F060008CF28D
:1031880012F0600090F213F0600094F214F00A0E4E
:10319800156E000E166E000E176E000E186E70EC8F
:1031A8003FF0600044F0A2F0600048F0A3F0600037
:1031B8004CF0A4F0600050F0A5F00001A251300FCF
:1031C8006000A7F1D9FF6000ABF1DAFFDF6E694B51
:1031D8006A2BB307B329D8B40ED098D76000A7F1EB
:1031E800D9FF6000ABF1DAFF300EDF6E694B6A2B56
:1031F800A607D8A0A707A7BF05D0A751EFE1A60546
:10320800D8B0ECD7B2BF09D0B25104E1090EB15D14
:10321800D8A003D0080EB36F03D06000C4F2B3F097
:10322800B351B15F000EB3BFFF0EB25BB351D8A468
:1032380002D0B5A70AD06000A7F1D9FF6000ABF1B2
:10324800DAFF2E0EDF6E694B6A2BB35193EC1FF039
:10325800600008F189F060000CF18AF0600010F15C
:103268008BF06000B8F236F06000BCF237F0600016
:10327800C0F238F0600024F233F0600028F234F035
:1032880060002CF235F0E0EC32F06000CCF018F081
:103298006000D0F019F06000D4F01AF06BEC34F054
:1032A800600060F0AAF0600064F0ABF0600068F0C5
:1032B800ACF060006CF0ADF099D06000A8F204F0BA
:1032C8006000ACF205F06000B0F206F06000B4F205
:1032D80007F00001B351040DD90EF324F66EFA0E6F
:1032E800F420F76EF86A000EF82209006F00D4FF88
:1032F80008F009006F00D4FF09F009006F00D4FF3F
:103308000AF00A006F00D4FF0BF004EC3DF06000F7
:1033180010F0A2F0600014F0A3F0600018F0A4F020
:1033280060001CF0A5F0600088F211F060008CF2DB
:1033380012F0600090F213F0600094F214F00A0E9C
:10334800156E000E166E000E176E000E186E70ECDD
:103358003FF0600044F0A2F0600048F0A3F0600085
:103368004CF0A4F0600050F0A5F00001A251300F1D
:103378006000A7F1D9FF6000ABF1DAFFDF6E694B9F
:103388006A2B6000A8F211F06000ACF212F0600045
:10339800B0F213F06000B4F214F0B351040DD90E7A
:1033A800F324F66EFA0EF420F76EF86A000EF8228F
:1033B80009006F00D4FF15F009006F00D4FF16F064
:1033C80009006F00D4FF17F00A006F00D4FF18F04F
:1033D80070EC3FF0600044F0AAF0600048F0ABF0F9
:1033E80060004CF0ACF0600050F0ADF00001B307A5
:1033F800B329D8B40ED061D76000A7F1D9FF600017
:10340800ABF1DAFF300EDF6E694B6A2BB107D8A03B
:10341800B207B151B211D8A4EFD7B4B7A9BFDDD262
:10342800A95103E1A805D8A0D8D26000A7F1D9FF17
:103438006000ABF1DAFF200EDF6E694B6A2BA8073C
:10344800D8A0A907A851A911D8B4C7D2EED7B4BF3C
:1034580038D0B4A914D0600083F2D9FF600087F295
:10346800DAFF6F0078FFAAF06F0078FFABF06F000B
:1034780078FFACF06F0078FFADF0040E12D060005A
:1034880083F2D9FF600087F2DAFF6F0078FFAAF0B5
:103498006F0074FFABF0000EABBFFF0EAC6FAD6FEB
:1034A800020EA027000EA123ADAF39D0030EB4132E
:1034B800AD1FAC1FAB1FAA6D000EAB23AC23AD2311
:1034C8002ED0B4A914D0600083F2D9FF600087F22F
:1034D800DAFF6F0078FFAAF06F0078FFABF06F009B
:1034E80078FFACF06F0078FFADF0040E15D06000E7
:1034F80083F2D9FF600087F2DAFF6F0078FF83F06C
:103508006F0074FF84F060000CF2AAF0600010F203
:10351800ABF0AC6BAD6B020EA027000EA123B1512E
:10352800B211D8A44BD0AA51AB11AC11AD11D8A48B
:1035380045D0B14BB22B42D0010EB36F0A0EB3196E
:10354800D8B444D0B351040DD90EF324F66EFA0E54
:10355800F420F76EF86A000EF8220900F550AA5D0B
:103568000900F550AB590900F550AC590900F55060
:10357800AD59D8A02BD0B32BE1D7010EB36F080EED
:10358800B319D8B423D0B351040D4F0EF324F66EFB
:10359800FB0EF420F76EF86A000EF8220900F550C9
:1035A800AA5D0900F550AB590900F550AC5909005E
:1035B800F550AD59D8A00AD0B32BE1D7B451800B40
:1035C800000AD8B4B9D7800AD8B4D7D7800EB3BF09
:1035D8007F0E836FB151B35DB251800A8359D8B061
:1035E80004D06000C4F2B3F010D0B251800A836FE7
:1035F800B351B15D800EB3BF7F0E8359D8B005D0EB
:10360800B351B16FB26BB1BFB207A851A911D8B409
:103618000DD0030EB415836F000EB515846F83515A
:103628008411D8B403D0A807D8A0A907B5AD13D082
:10363800A851B15DB251800A836FA951800A83599C
:10364800D8B005D0B151A85FB251A95B04D0000E23
:10365800A96F000EA86F800E836F080E846F60003C
:10366800D0F285F06000D4F286F08351851784513A
:103678008617800E851915E1080E8619D8A411D071
:10368800A9BF0BD0A95104E1030EA85DD8A005D0AD
:10369800FE0EA827FF0EA92304D0000EA96F000E66
:1036A800A86F800EB3BF7F0E836FA851B35DA95179
:1036B800800A8359D8B007D0B351A85F000EB3BFB2
:1036C800FF0EA95B04D0000EA96F000EA86FB4A569
:1036D8005BD0B4A314D0B4B104D0000E966F2B0EF7
:1036E80003D0000E966F2D0E956F6000A7F1D9FFDD
:1036F8006000ABF1DAFF600057F2DFFF31D0B4A110
:1037080008D06000A7F1D9FF6000ABF1DAFF200E06
:1037180026D0800E836F080E846F6000D0F285F08B
:103728006000D4F286F08351851784518617800E85
:10373800851918E1080E8619D8A414D06000A7F1DD
:10374800D9FF6000ABF1DAFF300EDF6E694B6A2BF0
:103758006000A7F1D9FF6000ABF1DAFF780EDF6EE9
:10376800694B6A2BA851A911D8B416D16000A7F1EA
:10377800D9FF6000ABF1DAFF300EDF6E694B6A2BC0
:10378800A807D8A0A907EED7A851A911D8A4B4B7FB
:1037980011D06000A7F1D9FF6000ABF1DAFF200E6D
:1037A800DF6E694B6A2BA807D8A0A907A851A911F1
:1037B800D8A4EFD7B4A314D0B4B104D0000E986F36
:1037C8002B0E03D0000E986F2D0E976F6000A7F197
:1037D800D9FF6000ABF1DAFF60005FF2DFFF0AD0CB
:1037E800B4A10AD06000A7F1D9FF6000ABF1DAFFFD
:1037F800200EDF6E694B6A2B800E836F080E846F74
:103808006000D0F285F06000D4F286F0835185170D
:1038180084518617800E851903E1080E8619D8A4ED
:10382800BBD06000A7F1D9FF6000ABF1DAFF300E22
:10383800DF6E694B6A2B6000A7F1D9FF6000ABF11E
:10384800DAFF780EDF6EA6D06000C4F283F0600065
:10385800C8F284F0D89083378437D8908337843778
:10386800D90E8325F66EFA0E8421F76EF86A000EDB
:10387800F82209006F00D4FF08F009006F00D4FF98
:1038880009F009006F00D4FF0AF00A006F00D4FFA6
:103898000BF06000A8F204F06000ACF205F06000E4
:1038A800B0F206F06000B4F207F004EC3DF06000FE
:1038B80010F011F0600014F012F0600018F013F02E
:1038C80060001CF014F00A0E156E000E166E000E45
:1038D800176E000E186E70EC3FF01150300F00019B
:1038E800B36F4FD06000A8F204F06000ACF205F0AE
:1038F8006000B0F206F06000B4F207F06000C4F2B5
:1039080083F06000C8F284F0D89083378437D89069
:10391800833784374F0E8325F66EFB0E8421F76EAE
:10392800F86A000EF82209006F00D4FF08F00900B9
:103938006F00D4FF09F009006F00D4FF0AF00A00F5
:103948006F00D4FF0BF004EC3DF004500F0B0001A6
:103958008C6F8C51010DCC0EF324F66EFE0EF42004
:10396800F76EF86A000EF82208006F00D4FFB3F073
:1039780008D0B451800B000AD8B466D7800AD8B4EE
:10398800B1D76000A7F1D9FF6000ABF1DAFF6000A2
:10399800CFF2DFFF694B6A2BB107D8A0B207B12974
:1039A800E8E1B229D8A4E5D7B4B7A9BF16D0A95180
:1039B80003E1A805D8A011D06000A7F1D9FF6000E5
:1039C800ABF1DAFF200EDF6E694B6A2BA807D8A08F
:1039D800A907A851A911D8A4EFD76000AFF1F6FF45
:1039E8006000B3F1F7FF6B4B6C2BF86A08006F00AF
:1039F800D4FFB3F0B351D8A4BCEF0EF06000A7F128
:103A0800D9FF6000ABF1DAFF000EDF6E1200010192
:103A1800496F010149AF42D1496D4951800A120FDE
:103A2800D8A0B6D0000E166F030E156F000E0E6FDD
:103A38000A0E0D6F000E086F640E076F4951056F6F
:103A4800066B05BF060788EC3EF0600014F40BF126
:103A5800600018F40CF17AEC3CF0090E01010B251A
:103A6800136F000E0C21146FA8EC44F0280E01010E
:103A78001325F66EFB0E1421F76EF86A000EF82275
:103A880009006F00D4FF37F109006F00D4FF38F147
:103A98000A006F00D4FF39F1000E0E6F640E0D6F2F
:103AA80049510B6F0C6B0BBF0C077AEC3CF0120EF4
:103AB80001010B25136F000E0C21146F000E166FF9
:103AC800030E156FA8EC44F0280E01011325F66EBD
:103AD800FB0E1421F76EF86A000EF82209006F0039
:103AE800D4FF34F109006F00D4FF35F10A006F00EC
:103AF800D4FF36F15AEC32F06000D0F446F16000A1
:103B0800D4F447F16000D8F448F1600018F534F1B6
:103B180060001CF535F1600020F536F1000E01015A
:103B2800166F030E156F000E086F0A0E076F4951C6
:103B3800056F066B05BF060788EC3EF0600014F4BD
:103B480013F1600018F414F1A8EC44F0280E0101F8
:103B58001325F66EFB0E1421F76EF86A000EF82294
:103B680009006F00D4FF37F109006F00D4FF38F166
:103B78000A006F00D4FF39F15AEC32F06000D0F43B
:103B880043F16000D4F444F16000D8F445F1120028
:103B980001014951800A750FD8A067D0000E0E6F39
:103BA8000A0E0D6F49510B6F0C6B0BBF0C077AECAB
:103BB8003CF0090E01010B25136F000E0C21146F48
:103BC800000E166F030E156FA8EC44F0280E0101C5
:103BD8001325F66EFB0E1421F76EF86A000EF82214
:103BE80009006F00D4FF34F109006F00D4FF35F1EC
:103BF8000A006F00D4FF36F1000E166F030E156F22
:103C0800000E086F0A0E076F4951056F066B05BF56
:103C1800060788EC3EF0600014F413F1600018F415
:103C280014F1A8EC44F0280E01011325F66EFB0EE2
:103C38001421F76EF86A000EF82209006F00D4FF0D
:103C480037F109006F00D4FF38F10A006F00D4FF84
:103C580039F15AEC32F06000D0F443F16000D4F44A
:103C680044F16000D8F445F1120001014951030DF7
:103C7800280EF324F66EFB0EF420F76EF86A000E99
:103C8800F82209006F00D4FF43F109006F00D4FF48
:103C980044F10A006F00D4FF45F112004951800A2F
:103CA800120FD8A0B6D0000E166F030E156F000EB7
:103CB8000E6F0A0E0D6F000E086F640E076F4951E4
:103CC800056F066B05BF060788EC3EF0600014F42C
:103CD8000BF1600018F40CF17AEC3CF0090E0101CC
:103CE8000B25136F000E0C21146FA8EC44F0010E85
:103CF80001011325F66EFB0E1421F76EF86A000E0B
:103D0800F82209006F00D4FF37F109006F00D4FFD3
:103D180038F10A006F00D4FF39F1000E0E6F640EFF
:103D28000D6F49510B6F0C6B0BBF0C077AEC3CF015
:103D3800120E01010B25136F000E0C21146F000EDB
:103D4800166F030E156FA8EC44F0010E0101132540
:103D5800F66EFB0E1421F76EF86A000EF8220900C1
:103D68006F00D4FF34F109006F00D4FF35F10A0069
:103D78006F00D4FF36F15AEC32F06000D0F446F10F
:103D88006000D4F447F16000D8F448F1600018F5F9
:103D980034F160001CF535F1600020F536F1000EB5
:103DA8000101166F030E156F000E086F0A0E076FDC
:103DB8004951056F066B05BF060788EC3EF06000A9
:103DC80014F413F1600018F414F1A8EC44F0010E97
:103DD80001011325F66EFB0E1421F76EF86A000E2A
:103DE800F82209006F00D4FF37F109006F00D4FFF3
:103DF80038F10A006F00D4FF39F15AEC32F0600054
:103E0800D0F443F16000D4F444F16000D8F445F1F3
:103E1800120001014951800A750FD8A067D0000E21
:103E28000E6F0A0E0D6F49510B6F0C6B0BBF0C0711
:103E38007AEC3CF0090E01010B25136F000E0C21E2
:103E4800146F000E166F030E156FA8EC44F0010EE8
:103E580001011325F66EFB0E1421F76EF86A000EA9
:103E6800F82209006F00D4FF34F109006F00D4FF75
:103E780035F10A006F00D4FF36F1000E166F030EFD
:103E8800156F000E086F0A0E076F4951056F066B14
:103E980005BF060788EC3EF0600014F413F16000DB
:103EA80018F414F1A8EC44F0010E01011325F66E84
:103EB800FB0E1421F76EF86A000EF82209006F0055
:103EC800D4FF37F109006F00D4FF38F10A006F0002
:103ED800D4FF39F15AEC32F06000D0F443F16000BD
:103EE800D4F444F16000D8F445F1120001014951BD
:103EF800030D010EF324F66EFB0EF420F76EF86A3C
:103F0800000EF82209006F00D4FF43F109006F008A
:103F1800D4FF44F10A006F00D4FF45F11200486E47
:103F280048AE37D1486C4850800A120FD8A0B0D09C
:103F3800000E156E030E146E000E0D6E0A0E0C6E3A
:103F4800000E076E640E066E4850046E056A04BEC5
:103F58000506FEEC3EF0600010F00AF0600014F078
:103F68000BF049EC3DF0090E0A24126E000E0B20EE
:103F7800136EC0EC44F0280E1224F66EFB0E1320CC
:103F8800F76EF86A000EF82209006F00D4FF36F0C9
:103F980009006F00D4FF37F00A006F00D4FF38F033
:103FA800000E0D6E640E0C6E48500A6E0B6A0ABE47
:103FB8000B0649EC3DF0120E0A24126E000E0B207F
:103FC800136E000E156E030E146EC0EC44F0280E2E
:103FD8001224F66EFB0E1320F76EF86A000EF82214
:103FE80009006F00D4FF33F009006F00D4FF34F0EC
:103FF8000A006F00D4FF35F0E0EC32F06000CCF03E
:1040080045F06000D0F046F06000D4F047F0600062
:1040180014F133F0600018F134F060001CF135F051
:10402800000E156E030E146E000E076E0A0E066E55
:104038004850046E056A04BE0506FEEC3EF06000BA
:1040480010F012F0600014F013F0C0EC44F0280EE9
:104058001224F66EFB0E1320F76EF86A000EF82293
:1040680009006F00D4FF36F009006F00D4FF37F065
:104078000A006F00D4FF38F0E0EC32F06000CCF0BA
:1040880042F06000D0F043F06000D4F044F0120039
:104098004850800A750FD8A064D0000E0D6E0A0E25
:1040A8000C6E48500A6E0B6A0ABE0B0649EC3DF0CE
:1040B800090E0A24126E000E0B20136E000E156EE8
:1040C800030E146EC0EC44F0280E1224F66EFB0E9C
:1040D8001320F76EF86A000EF82209006F00D4FF6B
:1040E80033F009006F00D4FF34F00A006F00D4FFEA
:1040F80035F0000E156E030E146E000E076E0A0ED4
:10410800066E4850046E056A04BE0506FEEC3EF0D5
:10411800600010F012F0600014F013F0C0EC44F0EE
:10412800280E1224F66EFB0E1320F76EF86A000EA6
:10413800F82209006F00D4FF36F009006F00D4FFA1
:1041480037F00A006F00D4FF38F0E0EC32F060007E
:10415800CCF042F06000D0F043F06000D4F044F0BE
:1041680012004850030D280EF324F66EFB0EF420BF
:10417800F76EF86A000EF82209006F00D4FF42F0CB
:1041880009006F00D4FF43F00A006F00D4FF44F029
:1041980012004850800A120FD8A0B0D0000E156E39
:1041A800030E146E000E0D6E0A0E0C6E000E076ED6
:1041B800640E066E4850046E056A04BE0506FEECE1
:1041C8003EF0600010F00AF0600014F00BF049ECCB
:1041D8003DF0090E0A24126E000E0B20136EC0EC7F
:1041E80044F0010E1224F66EFB0E1320F76EF86AE7
:1041F800000EF82209006F00D4FF36F009006F00A6
:10420800D4FF37F00A006F00D4FF38F0000E0D6EAF
:10421800640E0C6E48500A6E0B6A0ABE0B0649EC17
:104228003DF0120E0A24126E000E0B20136E000EC3
:10423800156E030E146EC0EC44F0010E1224F66ED7
:10424800FB0E1320F76EF86A000EF82209006F00C3
:10425800D4FF33F009006F00D4FF34F00A006F0078
:10426800D4FF35F0E0EC32F06000CCF045F06000AF
:10427800D0F046F06000D4F047F0600014F133F05D
:10428800600018F134F060001CF135F0000E156E76
:10429800030E146E000E076E0A0E066E4850046E6A
:1042A800056A04BE0506FEEC3EF0600010F012F050
:1042B800600014F013F0C0EC44F0010E1224F66E06
:1042C800FB0E1320F76EF86A000EF82209006F0043
:1042D800D4FF36F009006F00D4FF37F00A006F00F2
:1042E800D4FF38F0E0EC32F06000CCF042F060002F
:1042F800D0F043F06000D4F044F012004850800A37
:10430800750FD8A064D0000E0D6E0A0E0C6E4850C2
:104318000A6E0B6A0ABE0B0649EC3DF0090E0A2428
:10432800126E000E0B20136E000E156E030E146E27
:10433800C0EC44F0010E1224F66EFB0E1320F76E4B
:10434800F86A000EF82209006F00D4FF33F0090064
:104358006F00D4FF34F00A006F00D4FF35F0000E70
:10436800156E030E146E000E076E0A0E066E485088
:10437800046E056A04BE0506FEEC3EF0600010F00F
:1043880012F0600014F013F0C0EC44F0010E122497
:10439800F66EFB0E1320F76EF86A000EF82209007D
:1043A8006F00D4FF36F009006F00D4FF37F00A0021
:1043B8006F00D4FF38F0E0EC32F06000CCF042F04F
:1043C8006000D0F043F06000D4F044F01200485090
:1043D800030D010EF324F66EFB0EF420F76EF86A57
:1043E800000EF82209006F00D4FF42F009006F00A8
:1043F800D4FF43F00A006F00D4FF44F01200000E0F
:104408000201FF6F010EFE6F39015B835B955B87CD
:104418005B895B9B000E0301DA6F000EDB6F000EF9
:10442800DC6F000EDD6F3F01D28FD28B010E0101D0
:104438001C6F000E1B6F000E1D6FC20E1E6F010E4B
:104448001F6F000E206F5EEC36F0000E01011B6F2F
:10445800C20E1C6F010E1D6F000E1E6FEDEC3AF0C0
:104468003F01C79FC79BC79DBF9FBF9BBF9D330E83
:104478000101CC6FBB0ECB6FDF0EE82EFED7CB2F22
:10448800FCD7CC2FFAD700D03E01C151FC0B020952
:10449800C16FC151F30B0809C16FC18F1F0EF56FB2
:1044A8001F0EF76FF669F3691F0EF46FFF81FF8324
:1044B800FF95FF97FF99FF9BF899F851F30B0409B3
:1044C800F86FFD510F0B1009FD6FFD51F00B02093C
:1044D800FD6F1F0EF16F3F01C58F3A01708F3E01CE
:1044E800F88F3F01C597C599BD8926EC39F0DE0ED6
:1044F8000101626F030E636FBA0E646FFE0E656F83
:104508006F00C0FF66F1676B59EC00F0DE0E010129
:10451800076F030E086F000E0A6F010E096F9DECFE
:1045280037F0DE0E0101626F030E636F2B0E646FAE
:10453800FF0E656F6F00C4FF66F1676B59EC00F002
:10454800DE0E0101076F030E086F000E0A6F010EE1
:10455800096F9DEC37F03901D09FD091000E020110
:10456800946F000E956F000E966F000E976F000EF9
:10457800986F000E996F000E9A6F000E9B6F000ED9
:104588009C6F000E9D6F000E9E6F000E9F6F000EB9
:10459800A06F000EA16F000EA26F000EA36F000E99
:1045A800A46F000EA56F000EA66F000EA76F000E79
:1045B800A86F000EA96F000EAA6F000EAB6F000E59
:1045C800AC6F000EAD6F000EAE6F000EAF6F000E39
:1045D800B06F000EB16F000EB26F000EB36F000E19
:1045E800B46F000EB56F000EB66F000EB76F000EF9
:1045F800B86F000EB96F000EBA6F000EBB6F5DEC9E
:1046080044F03F01CB9504003F01BEA50DD0BF7F0C
:10461800CAA902D0BF8B02D03F01BF9BCEA302D054
:10462800BF8D02D03F01BF9DCAA909D00101E95140
:10463800EA11D8A404D0000EEA6F010EE96F010157
:10464800E905EA11D8A408D03F01CAB905D0000E7F
:104658000101EA6F020EE96F020E0101E919EA1180
:10466800D8A409D03F01CEA3CAB905D0000E0101D4
:10467800EA6F030EE96F030E0101E919EA11D8A4E4
:104688001AD03F01CEB317D0000E0101EA6F050E14
:10469800E96F810EAF6FFF0EB06FC40EB16FFD0EE4
:1046A800B26F640EB36FFE0EB46F240EB56F800E3A
:1046B800B66F46EC40F037EC41F065EC41F058EC51
:1046C8002DF00201CBBF16D0CB5108E1A10EC85D79
:1046D800860EC959010ECA59D8A00CD08DEC3DF0F0
:1046E800000E0201C86F000EC96F000ECA6F000EDF
:1046F800CB6F0AD0FE51FF11D8A406D0010EC827EF
:10470800000EC923CA23CB23C7BF11D0C75104E168
:10471800300EC65DD8A00BD0FF00000E0201C46F9A
:10472800000EC56F000EC66F000EC76F06D0010ED3
:10473800C427000EC523C623C7233F01BEB561D7D2
:10474800BF9FBF9BBF9D000E0201C46F000EC56FC7
:10475800000EC66F000EC76FC3BF25D0C35108E156
:10476800340EC05D330EC159030EC259D8A01BD0F8
:104778003F01BF8F0B0E0101CC6F260ECB6F5D0E74
:10478800E82EFED7CB2FFCD7CC2FFAD700D03F018D
:10479800BF9F000E0201C06F000EC16F000EC26FF6
:1047A800000EC36F2ED7010EC027000EC123C223EF
:1047B800C32327D701014C6F6D0E01014C65CED084
:1047C800000E166F030E156F000E0E6F0A0E0D6F9A
:1047D800000E086F640E076F600030F505F1066B78
:1047E80088EC3EF0600014F40BF1600018F40CF152
:1047F8007AEC3CF0090E01010B25136F000E0C2119
:10480800146FA8EC44F0280E01011325F66EFB0E78
:104818001421F76EF86A000EF82209006F00D4FF21
:1048280037F109006F00D4FF38F10A006F00D4FF98
:1048380039F1000E0E6F640E0D6F600030F50BF14C
:104848000C6B7AEC3CF0120E01010B25136F000E75
:104858000C21146F000E166F030E156FA8EC44F0B0
:10486800280E01011325F66EFB0E1421F76EF86A67
:10487800000EF82209006F00D4FF34F109006F0020
:10488800D4FF35F10A006F00D4FF36F15AEC32F04C
:104898006000D0F449F16000D4F44AF16000D8F423
:1048A8004BF1000E0101166F030E156F000E086F15
:1048B8000A0E076F600030F505F1066B88EC3EF0D4
:1048C800600014F413F1600018F414F1A8EC44F03B
:1048D800280E01011325F66EFB0E1421F76EF86AF7
:1048E800000EF82209006F00D4FF37F109006F00AD
:1048F800D4FF38F10A006F00D4FF39F1600024F5C5
:1049080034F1600028F535F160002CF536F15AECE9
:1049180032F06000D0F446F16000D4F447F1600052
:10492800D8F448F1600018F534F160001CF535F151
:10493800600020F536F1000E0101376F000E386F68
:104948003F0E396F5AEC32F06000D0F443F160004A
:10495800D4F444F16000D8F445F112000A0E0101C4
:104968004C6580D0000E166F030E156F000E086F91
:104978000A0E076F600030F505F1066B88EC3EF013
:10498800600014F413F1600018F414F1A8EC44F07A
:10499800280E01011325F66EFB0E1421F76EF86A36
:1049A800000EF82209006F00D4FF37F109006F00EC
:1049B800D4FF38F10A006F00D4FF39F1000E0E6FF2
:1049C8000A0E0D6F600030F50BF10C6B7AEC3CF0C1
:1049D800090E01010B25136F000E0C21146F000E38
:1049E800166F030E156FA8EC44F0280E010113256D
:1049F800F66EFB0E1421F76EF86A000EF822090015
:104A08006F00D4FF34F109006F00D4FF35F10A00BC
:104A18006F00D4FF36F15AEC32F06000D0F449F15F
:104A28006000D4F44AF16000D8F44BF1600024F53A
:104A380034F1600028F535F160002CF536F1000EF0
:104A48000101376F000E386F3F0E396F5AEC32F0A4
:104A58006000D0F443F16000D4F444F16000D8F46D
:104A680045F1120001014C51030D280EF324F66E96
:104A7800FB0EF420F76EF86A000EF82209006F00AA
:104A8800D4FF34F109006F00D4FF35F10A006F003C
:104A9800D4FF36F1000E376F000E386F3F0E396FB6
:104AA8005AEC32F06000D0F443F16000D4F444F1E1
:104AB8006000D8F445F112004B6E6D0E4B64C7D000
:104AC800000E156E030E146E000E0D6E0A0E0C6E9F
:104AD800000E076E640E066E60002CF104F0056A85
:104AE800FEEC3EF0600010F00AF0600014F00BF0ED
:104AF80049EC3DF0090E0A24126E000E0B20136ECD
:104B0800C0EC44F0280E1224F66EFB0E1320F76E4C
:104B1800F86A000EF82209006F00D4FF36F0090089
:104B28006F00D4FF37F00A006F00D4FF38F0000E92
:104B38000D6E640E0C6E60002CF10AF00B6A49ECE5
:104B48003DF0120E0A24126E000E0B20136E000E9A
:104B5800156E030E146EC0EC44F0280E1224F66E87
:104B6800FB0E1320F76EF86A000EF82209006F009A
:104B7800D4FF33F009006F00D4FF34F00A006F004F
:104B8800D4FF35F0E0EC32F06000CCF048F0600083
:104B9800D0F049F06000D4F04AF0000E156E030E14
:104BA800146E000E076E0A0E066E60002CF104F0FB
:104BB800056AFEEC3EF0600010F012F0600014F0A0
:104BC80013F0C0EC44F0280E1224F66EFB0E1320EE
:104BD800F76EF86A000EF82209006F00D4FF36F06D
:104BE80009006F00D4FF37F00A006F00D4FF38F0D7
:104BF800600020F133F0600024F134F0600028F107
:104C080035F0E0EC32F06000CCF045F06000D0F018
:104C180046F06000D4F047F0600014F133F0600013
:104C280018F134F060001CF135F0000E366E000EFD
:104C3800376E3F0E386EE0EC32F06000CCF042F098
:104C48006000D0F043F06000D4F044F012000A0E87
:104C58004B647CD0000E156E030E146E000E076EAA
:104C68000A0E066E60002CF104F0056AFEEC3EF0B8
:104C7800600010F012F0600014F013F0C0EC44F083
:104C8800280E1224F66EFB0E1320F76EF86A000E3B
:104C9800F82209006F00D4FF36F009006F00D4FF36
:104CA80037F00A006F00D4FF38F0000E0D6E0A0EC0
:104CB8000C6E60002CF10AF00B6A49EC3DF0090E0D
:104CC8000A24126E000E0B20136E000E156E030ED2
:104CD800146EC0EC44F0280E1224F66EFB0E13205E
:104CE800F76EF86A000EF82209006F00D4FF33F05F
:104CF80009006F00D4FF34F00A006F00D4FF35F0CC
:104D0800E0EC32F06000CCF048F06000D0F049F000
:104D18006000D4F04AF0600020F133F0600024F124
:104D280034F0600028F135F0000E366E000E376E54
:104D38003F0E386EE0EC32F06000CCF042F06000DC
:104D4800D0F043F06000D4F044F012004B50030D53
:104D5800280EF324F66EFB0EF420F76EF86A000EA8
:104D6800F82209006F00D4FF33F009006F00D4FF68
:104D780034F00A006F00D4FF35F0000E366E000ED6
:104D8800376E3F0E386EE0EC32F06000CCF042F047
:104D98006000D0F043F06000D4F044F0120000014D
:104DA800FA510101615D6251800A636F0001FB5194
:104DB800800A01016359D8A01AD06151DD5DDE5126
:104DC800800A636F6251800A6359D8A010D0FCC072
:104DD800D1F0FDC0D2F0DBC2D9F2DCC2DAF2DDC11B
:104DE800CFF0DEC1D0F0FAC0D7F2FBC0D8F26151E3
:104DF800DD5DDE51800A636F6251800A6359D8B065
:104E08001AD06151DB5DDC51800A636F6251800A00
:104E18006359D8A010D0F8C0D1F0F9C0D2F0FCC0C6
:104E2800D9F2FDC0DAF2DBC1CFF0DCC1D0F0DDC1D0
:104E3800D7F2DEC1D8F26151DB5DDC51800A636FC5
:104E48006251800A6359D8B01AD06151D95DDA51DC
:104E5800800A636F6251800A6359D8A010D0F6C0E7
:104E6800D1F0F7C0D2F0F8C0D9F2F9C0DAF2D9C15E
:104E7800CFF0DAC1D0F0DBC1D7F2DCC1D8F2615192
:104E8800D95DDA51800A636F6251800A6359D8B0DC
:104E98001AD06151D75DD851800A636F6251800A78
:104EA8006359D8A010D0F4C0D1F0F5C0D2F0F6C044
:104EB800D9F2F7C0DAF2D7C1CFF0D8C1D0F0D9C152
:104EC800D7F2DAC1D8F26151D75DD851800A636F41
:104ED8006251800A6359D8B01AD06151D55DD65154
:104EE800800A636F6251800A6359D8A010D0F2C05B
:104EF800D1F0F3C0D2F0F4C0D9F2F5C0DAF2D5C1DE
:104F0800CFF0D6C1D0F0D7C1D7F2D8C1D8F261510D
:104F1800D55DD651800A636F6251800A6359D8B053
:104F28001AD06151D35DD451800A636F6251800AEF
:104F38006359D8A010D0F0C0D1F0F1C0D2F0F2C0BF
:104F4800D9F2F3C0DAF2D3C1CFF0D4C1D0F0D5C1D1
:104F5800D7F2D6C1D8F26151D35DD451800A636FBC
:104F68006251800A6359D8B01AD06151D15DD251CB
:104F7800800A636F6251800A6359D8A010D0EEC0CE
:104F8800D1F0EFC0D2F0F0C0D9F2F1C0DAF2D1C15D
:104F9800CFF0D2C1D0F0D3C1D7F2D4C1D8F2615189
:104FA800D15DD251800A636F6251800A6359D8B0CB
:104FB8001AD06151CF5DD051800A636F6251800A67
:104FC8006359D8A010D0ECC0D1F0EDC0D2F0EEC03B
:104FD800D9F2EFC0DAF2CFC1CFF0D0C1D0F0D1C151
:104FE800D7F2D2C1D8F26151CF5DD051800A636F38
:104FF8006251800A6359D8B01AD06151CD5DCE5143
:10500800800A636F6251800A6359D8A010D0EAC041
:10501800D1F0EBC0D2F0ECC0D9F2EDC0DAF2CDC1DC
:10502800CFF0CEC1D0F0CFC1D7F2D0C1D8F2615104
:10503800CD5DCE51800A636F6251800A6359D8B042
:105048001CD061510001E85DE951800A0101636FDC
:105058006251800A6359D8A010D0FCC2D1F0FDC2B9
:10506800D2F0EAC0D9F2EBC0DAF2E8C0CFF0E9C07A
:10507800D0F0CDC1D7F2CEC1D8F226EC39F012006B
:10508800000E0201836F000E826F000E7F6F000E0C
:105098007E6F380E0101AF6FFF0EB06F290EB16F32
:1050A800FD0EB26FC8EC38F0000E02019C6F000EC6
:1050B8009D6F000E9E6F000E9F6F000EA06F000E7A
:1050C800A16F000EA26F000EA36F000EA46F000E5A
:1050D800A56F000EA66F000EA76F000EA86F000E3A
:1050E800A96F000EAA6F000EAB6F000EAC6F000E1A
:1050F800AD6F000EAE6F000EAF6F000E836F000E27
:10510800826FE7D0400E0101C56FFF0EC66FD890C1
:1051180002018235D96E8335DA6EB40ED926040EB3
:10512800DA226F0078FFC7F16F0074FFC8F1010140
:10513800D890C737C837D890C737C837C551C72799
:10514800C651C823940EC725D96E020EC821DA6E3F
:105158006F0078FF78F26F0078FF79F26F0078FFC0
:105168007AF26F0078FF7BF2840E626F020E636F33
:10517800CF0E646FFF0E656F6000E0F966F16000A6
:10518800E4F967F16000E8F968F16000ECF969F1A9
:1051980059EC00F0D89002018235D96E8335DA6E69
:1051A800780ED926040EDA22010EDE6E000EDD6EB0
:1051B8007E517F11D8A407D0000E806F000E7F6F3C
:1051C800010E7E6F04D02C0E806F000E816FD89078
:1051D8008235D96E8335DA6E780ED926040EDA2236
:1051E800DE04DE10D8A40CD08E0E0101626F020E10
:1051F800636FDA0E646FFF0E656F59EC00F00BD029
:105208008E0E0101626F020E636FC90E646FFF0E8E
:10521800656F59EC00F0600008FA13F160000CFAB1
:1052280014F1000E0101166F250E156FA8EC44F05D
:10523800960E0101132502017C6F0A0E010114214B
:1052480002017D6F000E0101626F020E636FEC0EAA
:10525800646FFC0E656F800E666F020E676F6000EC
:10526800F0F968F16000F4F969F1600010FA6AF188
:105278006B6B600014FA6CF16D6B600018FA6EF1DC
:105288006F6B60001CFA70F1716B600020FA72F1AC
:10529800736B600024FA74F1756B600028FA76F17C
:1052A800776B60002CFA78F1796B8E0E7A6F020EAC
:1052B8007B6F59EC00F0380E0101AF6FFF0EB06F35
:1052C800000EB16F020EB26FC8EC38F00201824BCB
:1052D800832BE951825D8351800A0101C56F020168
:1052E800EA51800A0101C559D8A00CD7380EAF6F12
:1052F800FF0EB06FE30EB16FFF0EB26FC8EC38F05F
:105308001200000E0101A46F000EA36F000EA26F21
:10531800000EA16F380E0001B66FFF0EB76F290E91
:10532800B86FFD0EB96F95EC3AF0000E02019C6F54
:10533800000E9D6F000E9E6F000E9F6F000EA06FF7
:10534800000EA16F000EA26F000EA36F000EA46FD7
:10535800000EA56F000EA66F000EA76F000EA86FB7
:10536800000EA96F000EAA6F000EAB6F000EAC6F97
:10537800000EAD6F000EAE6F000EAF6F000E010194
:10538800A46F000EA36FE3D0400E0001BA6FFF0EAA
:10539800BB6FD8900101A335D96EA435DA6EB40E6F
:1053A800D926040EDA226F0078FFBCF06F0074FF74
:1053B800BDF00001D890BC37BD37D890BC37BD3799
:1053C800BA51BC27BB51BD23940EBC25D96E020E21
:1053D800BD21DA6E6F0078FF99F16F0078FF9AF1BE
:1053E8006F0078FF9BF16F0078FF9CF18F0E696F5B
:1053F800010E6A6FCF0E6B6FFF0E6C6F600064F664
:105408006DF0600068F66EF060006CF66FF060009A
:1054180070F670F0B5EC0EF0D8900101A335D96E96
:10542800A435DA6E780ED926040EDA22010EDE6E65
:10543800000EDD6EA151A211D8A407D0000E9D6FF9
:10544800000EA26F010EA16F04D02C0E9D6F000EEE
:105458009E6FD890A335D96EA435DA6E780ED9260A
:10546800040EDA22DE04DE10D8A40CD0890E000166
:10547800696F010E6A6FDA0E6B6FFF0E6C6FB5EC19
:105488000EF00BD0890E0001696F010E6A6FC90E0C
:105498006B6FFF0E6C6FB5EC0EF060008CF612F0BF
:1054A800600090F613F0000E156E250E146EC0EC19
:1054B80044F0960E122401019F6F0A0E1320A06F6C
:1054C800110E0001696F010E6A6FEC0E6B6FFC0E16
:1054D8006C6F9D0E6D6F010E6E6F60007CF66FF045
:1054E800600080F670F060003CF671F0726B60004E
:1054F80040F673F0746B600044F675F0766B6000EC
:1055080048F677F0786B60004CF679F07A6B6000BB
:1055180050F67BF07C6B600054F67DF07E6B60008B
:1055280058F67FF0806B890E816F010E826FB5ECA3
:105538000EF0380E0001B66FFF0EB76F110EB86F80
:10554800010EB96F95EC3AF00101A34BA42B0201AF
:10555800E9510101A35DA451800A0001BA6F02015B
:10556800EA51800A0001BA59D8A00ED7380EB66F92
:10557800FF0EB76FE30EB86FFF0EB96F95EC3AF0F8
:10558800120060003CF553F10101546B556B4E3528
:10559800533701E354815351586F600048F553F174
:1055A800546B556B5135533701E354815351576F41
:1055B8005851D8B40BD05751585DD8B011D0585164
:1055C80000085725536F180E53650AD0600040F540
:1055D8004DF1600044F54EF1600048F54FF11200BE
:1055E8005751D8B40BD05851575DD8B011D0575136
:1055F80000085825536F180E53650AD0600034F51B
:105608004DF1600038F54EF160003CF54FF11200A5
:10561800060E566F4FBF568F52BF568D4E8FFF0ED8
:105628004D17FF0E4E17000E4F17518FFF0E5017D4
:10563800FF0E5117000E52175751585DD8B01CD0A5
:10564800D890503751375237570758515719D8B44F
:105658000ED05607600058F553F1070E5317D8B40B
:1056680006D0EED7D8904F334E334D33582B575181
:105678005819D8B420D0F6D75851575DD8B01BD098
:10568800D8904D374E374F37580758515719D8B417
:105698000ED05607600058F553F1070E5317D8B4CB
:1056A80006D0EED7D890523351335033572B575139
:1056B8005819D8A4F7D756AF0CD0FF0E4D1BFF0EC4
:1056C8004E1BFF0E4F1B010E4D27000E4E23000EE2
:1056D8004F2356AD0CD0FF0E501BFF0E511BFF0E73
:1056E800521B010E5027000E5123000E5223000EAC
:1056F800566F4D5150274E5151234F51522352AF9F
:105708000ED0FF0E501BFF0E511BFF0E521B010E39
:105718005027000E5123000E5223010E566F6000D1
:1057280040F505F1600044F506F1600048F507F121
:10573800600060F508F1600058F509F1E0EC39F017
:10574800600014F44DF1600018F44EF160001CF490
:105758004FF11200600038F152F0536A546A4D3428
:10576800523601E353805250576E600044F152F0B4
:10577800536A546A5034523601E353805250566E7D
:105788005750D8B40BD05650575CD8B011D057509A
:1057980000085624526E180E52640AD060003CF17C
:1057A8004CF0600040F14DF0600044F14EF0120002
:1057B8005650D8B40BD05750565CD8B011D056506C
:1057C80000085724526E180E52640AD0600030F157
:1057D8004CF0600034F14DF0600038F14EF01200EA
:1057E800060E556E4EBE558E51BE558C4D8EFF0E13
:1057F8004C16FF0E4D16000E4E16508EFF0E4F160D
:10580800FF0E5016000E51165650575CD8B01CD0DB
:10581800D8904F3650365136560657505618D8B489
:105828000ED05506600054F152F0070E5216D8B447
:1058380006D0EED7D8904E324D324C32572A5650B9
:105848005718D8B420D0F6D75750565CD8B01BD0CC
:10585800D8904C364D364E36570657505618D8B451
:105868000ED05506600054F152F0070E5216D8B407
:1058780006D0EED7D890513250324F32562A565071
:105888005718D8A4F7D755AE0CD0FF0E4C1AFF0EF8
:105898004D1AFF0E4E1A010E4C26000E4D22000E18
:1058A8004E2255AC0CD0FF0E4F1AFF0E501AFF0EA9
:1058B800511A010E4F26000E5022000E5122000EE2
:1058C800556E4C504F264D5050224E50512251AEDD
:1058D8000ED0FF0E4F1AFF0E501AFF0E511A010E6E
:1058E8004F26000E5022000E5122010E556E600008
:1058F8003CF104F0600040F105F0600044F106F06E
:1059080060005CF107F0600054F108F03BEC3AF0FD
:10591800600010F04CF0600014F04DF0600018F0DA
:105928004EF01200FD0E0001B66FFF0EB76FFD0EB0
:10593800B86FFF0EB96F640EBA6FFE0EBB6FF20E32
:10594800BC6F8A0EBD6F78EC40F0320E030100196F
:10595800D8A40ED00151D8A40BD0000E066EFE0EAE
:10596800076E000E096E010E086E04EC38F081D047
:10597800000E0001DA6F000ED96F000E0201EA6F07
:10598800000EE96F3F01D29F000E596E000E586E4F
:10599800000E0201F46F000EF36F3F01CB854BEC54
:1059A8003EF0000E596E000E586E13D0000ED1EC6A
:1059B80031F0600030F058F0600034F059F0020126
:1059C800F305F411D8A405D0000EF46F000EF36FA0
:1059D8003FD058505910D8B4E9D73F01CB85EAECED
:1059E80035F0000ED1EC31F00C500D10D8B4F9D7C9
:1059F8003F01CB855FEC43F0000ED1EC31F00C5049
:105A08000D10D8B4F9D73F01CB8538EC43F0000E20
:105A1800D1EC31F00C500D10D8B4F9D73F01CB853B
:105A280011EC43F0000ED1EC31F00C500D10D8B44D
:105A3800F9D73F01CB8543EC42F0000ED1EC31F0B1
:105A48000C500D10D8B4F9D70201E94BEA2BA5D7B1
:105A58003F01D28F000E0201F46F000EF36F1B0E90
:105A6800066EFE0E076E000E096E010E086E04EC3F
:105A780038F0FD0E0001B66FFF0EB76FFD0EB86F60
:105A8800FF0EB96F640EBA6FFE0EBB6FF20EBC6FDD
:105A98008A0EBD6F78EC40F03F01BE95000E020102
:105AA800FF6F000EFE6F12003E01F8B112006F008A
:105AB800C0FBECF16F00BCFBEBF10101EC51B06FE6
:105AC800AF6BEB51AF25DF6F000EB021E06F6000C8
:105AD8007CF7AFF1600080F7B0F1000EB0BFFF0EA9
